:020000040800F2
:10000000D8A70020E9010008B9020008B1020008E1
:10001000B50200088D020008C504000800000000B9
:100020000000000000000000000000004501000882
:10003000910200080000000089010008BD020008CC
:10004000030200080302000803020008030200087C
:10005000030200080302000803020008030200086C
:10006000030200080302000803020008030200085C
:10007000030200080302000803020008030200084C
:10008000030200080302000803020008030200083C
:10009000030200080302000803020008030200082C
:1000A000030200080302000803020008030200081C
:1000B0004103000843030008450300080302000849
:1000C00003020008030200080302000803020008FC
:1000D0000302000851040008750400089D0400088C
:1000E00003020008030200080302000803020008DC
:1000F00003020008030200080302000803020008CC
:100100000302000803020008490300080302000874
:100110006903000891030008650300080302000852
:10012000030200080302000803020008030200089B
:10013000DFF80CD000F098F800480047CD07000821
:10014000D8A70020204B19680868B0E8F00F80F3AA
:100150000988BFF36F8F4FF0000080F311884EF0D5
:100160000D0E70470000000006480068006880F32C
:10017000088862B661B6BFF34F8FBFF36F8F00DFA1
:1001800000BF00BF08ED00E0EFF30980BFF36F8F01
:100190000D4B1A6820E9F00F106008B54FF02000F1
:1001A00080F3118802F04CFC4FF0000080F31188BE
:1001B000BDE8084019680868B0E8F00F80F30988C6
:1001C000BFF36F8F704700BFA8000020EFF31180CE
:1001D0004FF0200181F31188704780F31188704738
:1001E000EFF3058070470000064880470648004747
:1001F000FEE7FEE7FEE7FEE7FEE7FEE7FEE7FEE7D7
:10020000FEE7FEE7DD0200083101000840EA0103D5
:100210009B0703D009E008C9121F08C0042AFAD2BC
:1002200003E011F8013B00F8013B521EF9D2704780
:10023000D2B201E000F8012B491EFBD27047002228
:10024000F6E710B513460A4604461946FFF7F0FFD5
:10025000204610BD034611F8012B00F8012B002A9F
:10026000F9D1184670470000064C074D06E0E068DB
:1002700040F0010394E8070098471034AC42F6D3ED
:10028000FFF75AFF203600084036000800BFFEE79F
:1002900070470000014800687047000020000020FF
:1002A00002480068401C0149086070472000002097
:1002B00000BFFEE700BFFEE77047000010B5FFF784
:1002C00085FF02F063FF18B14FF0805002490860CB
:1002D0000020FFF782FF10BD04ED00E010B51448C8
:1002E000006840F001001249086008464068114962
:1002F00008400F494860084600680F4908400C490B
:1003000008600846006820F48020086008464068BD
:100310000A490840064948600846006806490840FE
:10032000034908604FF41F00886001F0FBFA10BD1C
:10033000001002400C00FFE8FFFFF6FEFFFF00F791
:10034000704770477047000010B50121044801F064
:100350000BFD012803D10121014801F001FD10BD71
:10036000000C00407047000010B50521064801F060
:10037000E8FD20B1044801F04DFD04490870072153
:10038000014801F0DEFD10BD004C004020010020BE
:1003900010B50521064801F0D4FD40B1044801F034
:1003A00039FD044908700846007800F0E7FF10BDE9
:1003B000005000401F0100202DE9F04104460F4687
:1003C00090461E46069D33E0681C80B325B1FFF7BA
:1003D00061FF801BA8422BD904EBC40101EB8411FF
:1003E0001A4A52F8310040F20F7101F0C6FD202088
:1003F00004EBC40101EB8411144A02EBC10181F842
:100400003E0004EBC40101EB841102EBC10181F851
:100410003F0000BF002004EBC40101EB841102EB9C
:10042000C10181F83D0000BF0320BDE8F081FFE776
:1004300004EBC40101EB8411044A52F83100072196
:1004400001F07FFD0128BFD10020EEE7907A002067
:1004500010B50521064801F074FD18B1044801F0FB
:10046000D9FCC4B20721024801F06BFD10BD0000A9
:100470000038014010B50521064801F062FD20B1A9
:10048000044801F0C7FC044908700721014801F045
:1004900058FD10BD004400402001002010B505218A
:1004A000064801F04EFD20B1044801F0B3FC0449B8
:1004B00008700721014801F044FD10BD00480040CC
:1004C0002001002000BFFEE702E008C8121F08C19B
:1004D000002AFAD170477047002001E001C1121FC5
:1004E000002AFBD17047704770B504460D46294677
:1004F000204600F031F808B900BFFEE705EB8500A3
:10050000810004F10800405820F0010105EB85004E
:10051000820004F108008150002105EB8500820073
:1005200004F10800815005EB8500820004F10C0005
:10053000815005EB8500820004F11000815005EB2D
:100540008500820004F1140081506068AA000F2128
:1005500091400843606070BD02460120034B9A42FF
:1005600002D1042900DD0020704700000004024091
:1005700070B504460A4A52F824100A4A52F8240078
:1005800000F065F8C0F10100C5B2054A52F8241028
:10059000044A52F824002A4600F00AF870BD000010
:1005A0003800002028000020416170470161704739
:1005B0000AB1016100E041617047F0B5044616469A
:1005C0000025002201F00F0501F0100707B13543A7
:1005D000002018E0012787401F4097B122684FEAAA
:1005E000800C0F2707FA0CF7BA43870005FA07F7C4
:1005F0003A43282901D1636102E0482900D12361EF
:100600002260471CB8B20828E4D308201CE0012768
:1006100087401F40B7B16268A0F108074FEA870C16
:100620000F2707FA0CF7BA43A0F10807BF0005FA35
:1006300007F73A43282901D1636102E0482900D134
:1006400023616260471CB8B21028E0D3F0BD0246B7
:100650009068084008B1012070470020FCE710B501
:1006600040F2026000F044FE40F2036000F040FE01
:1006700040F2046000F03CFE40F2076000F038FEFB
:100680004FF4C06000F034FE10BD10B5FFF7E7FF77
:10069000FFF729FF00F062F800F06CFF01F076F838
:1006A00001F06EFB10BD000010B540F2046000F0D8
:1006B0001FFE40F2036000F01BFE40F2017000F0EC
:1006C00017FE0223032210210D48FFF776FF00F0EA
:1006D00053FF002000F058FF012000F055FF0220DA
:1006E00000F052FF022001F09FF8002001F050F8C6
:1006F000012001F04DF8022001F04AF810BD000081
:100700000010014010B540F2036000F0F1FD082335
:10071000032210210448FFF750FF00F0A9FE00203B
:100720000249C87210BD0000000C0140C8870020BB
:1007300010B500F0A5FE10BD10B5002001F01CFDA5
:10074000012001F019FD022001F016FD032001F047
:1007500013FD042001F010FD10BD000010B5074886
:100760000021016041608023032210210448FFF72B
:1007700024FF80210248FFF719FF10BD140100205B
:10078000000C014010B50F480068401C0D4908607E
:1007900008460068B0F5FA7F13DB002008600846C1
:1007A0004068012806D10020486080210648FFF7F4
:1007B000FDFE06E001200349486080210248FFF762
:1007C000F3FE10BD14010020000C01401FB54FF4D2
:1007D000407000F0C3F80121481EB0F1807F00D3C3
:1007E0001BE0481E4FF0E022506150170F220028F6
:1007F00007DA13071D0E234B00F00F04241F1D55AD
:1008000003E013071C0E204B1C5400BF00204FF0C8
:10081000E02290610720106100BFFFF736FFFFF76D
:1008200087FFFFF789FFFFF76DFFFFF73DFF174ACF
:100830004FF47A71002000F05FFE144A012108464F
:1008400000F05AFE0020124A0123CDE90120009356
:10085000039003464FF400720EA1114802F0E4FB2E
:100860000020104A0223CDE90120009303900346A3
:100870004FF400720CA10F4802F0D6FB02F0A4F86E
:1008800000BFFEE718ED00E000E400E0C12A000828
:1008900008000020765461736B4C45443100000021
:1008A000D52700080C000020765461736B4C45443A
:1008B00032000000F5270008F0B50B4600210024A7
:1008C0000025244E366806F4E066B6F5E06F02D1E6
:1008D00000BF042526E01F4E366806F4E066B6F534
:1008E000C06F02D1012403251CE01A4E366806F4BD
:1008F000E066B6F5A06F02D10224022512E0154E83
:10090000366806F4E066B6F5806F02D1032401254F
:1009100008E0104E366806F4E066B6F5407F01D177
:1009200004240025C4F1040603FA06F1C5F1040706
:100930000F26FE40164031430901074E315400F0A6
:100940001F070126BE404711BF0007F1E027C7F887
:100950000061F0BD0CED00E000E400E0024901435D
:10096000024A1160704700000000FA050CED00E03B
:1009700010B504460E48006844600E480068844282
:1009800007D20B480168091D0B48006801F0EAFD19
:100990000CE007480168091D0848006801F0E2FD05
:1009A00007480068844201D20548046010BD000079
:1009B000A8000020BC000020B0000020AC000020F7
:1009C000D80000202DE9F04105460F461FB9A800C8
:1009D00000F070FB00E03846064656B15C2000F09F
:1009E00069FB04460CB1266304E0304601F018FEB2
:1009F00000E0002424B1A900A522206BFFF718FC19
:100A00002046BDE8F081000010B501F0D1FD14488A
:100A1000006808BB134801F095FD134801F092FDF2
:100A200010481249086010481149086000220C2142
:100A30000A2002F0A9F80A4908600846006818B9B7
:100A4000FFF7C4FB00BFFEE70548006820B109A11D
:100A50000348006801F04EFE01F0CCFD10BD00001F
:100A6000E8000020680200207C020020E000002056
:100A7000E4000020546D72510000000070B523E0C6
:100A800001F0D6FF1348006808B9012000E00020FB
:100A9000054602F0B5FCBDB901F08AFD0D48C068FD
:100AA000C468201D01F03AFD0B480068401E0A4949
:100AB00008600A480068401E0849086001F09AFD75
:100AC000204600F062F800BF044800680028D7D133
:100AD00070BD000040020020B8000020B4000020DB
:100AE00070B504460D46206C70B1216CE068084476
:100AF000E0606168E068884201D32068E0602846D1
:100B0000226CE168FFF782FB70BD2DE9F0410446DD
:100B10000E4615460027206C40B9206878BB6068F7
:100B200002F0D2FB07460020606028E07DB9314624
:100B3000226CA068FFF76AFB216CA0680844A060E3
:100B4000D4E9011088421AD32068A06017E031462A
:100B5000226CE068FFF75AFB216CE068401AE06005
:100B60002168E068884203D2216C6068401AE06026
:100B7000022D04D1A06B10B1A06B401EA063A06B2E
:100B8000401CA0633846BDE8F08110B50446206BD8
:100B900001F046FD204601F043FD10BD0146084A24
:100BA000126812680AB9012200E000220A600A688D
:100BB00022B9034A1268D268106800E0002070472A
:100BC000E00000200A4A22F007000A4A10600022D2
:100BD000084B5A6047F2F872074B5A6000221A60BD
:100BE000014647F2F8724A601A460A6070470000F0
:100BF00098020020FC0000200401002000BFFFF745
:100C00003DFF034800680128F9D901F067FDF6E7C8
:100C1000640100202DE9F04704460F461546994629
:100C2000DDF82080002607E0B95D04F1340081552D
:100C3000B85D00B902E0761C102EF5D300BF00218C
:100C400043200155082D00D30725E562E564002007
:100C50002065201D01F083FC04F1180001F07FFCE9
:100C60002461C5F10800A06164620020606584F819
:100C70005800BDE8F087000010B5002407E004EB41
:100C800084010F4A02EB810001F05CFC641C082C1B
:100C9000F5D30C4801F056FC0B4801F053FC0B480F
:100CA00001F050FC0A4801F04DFC0A4801F04AFCF2
:100CB00004480949086004480849086010BD00005C
:100CC0006401002004020020180200202C020020F1
:100CD0004002002054020020AC000020B0000020A0
:100CE0002DE9F04104460D4616461F464FF0000818
:100CF00065602461B5420CD8F01BA169884202D31B
:100D00004FF0010811E0211D0948006801F02AFC9C
:100D10000BE0BE4204D2BD4202D34FF0010804E012
:100D2000211D0448006801F01DFC4046BDE8F0812B
:100D3000E4000020E000002070B5054601F038FC1A
:100D4000A86B08B9012400E0002401F053FC204600
:100D500070BD70B5054601F02BFCA86BE96B8842AD
:100D600001D1012400E0002401F044FC204670BDC4
:100D7000F8B505460F4613480068C068C468201DD2
:100D800001F0CCFBE069012817D1A06941192B467D
:100D90003A462046FFF7A4FF01280ED10020034663
:100DA0002A4601460090204602F0ECFB06461EB99A
:100DB000FFF70CFA00BFFEE700BF2046616A8847D4
:100DC000F8BD0000E000002070B586B05DE003983B
:100DD00000285ADB059C606908B9012000E000206A
:100DE00010B9201D01F09AFB02A800F0A7F80546F3
:100DF00003980A2847D2DFE800F00905072B2D42A7
:100E000006082C2E00BF00BF00BF00BF0498A269D7
:100E1000811803462A462046FFF762FF012816D1B3
:100E20002046616A8847E069012810D100200090BF
:100E30000498A169421800231946204602F0A2FB3B
:100E400006461EB9FFF7C2F900BFFEE700BF1BE070
:100E500000BF19E000BF0498A061A06908B101209B
:100E600000E0002018B9FFF7B1F900BFFEE7A06964
:100E700041192B462A462046FFF732FF04E0204660
:100E800001F0CEFB00E000BF00BF00231A4603A91B
:100E90000348006801F0ADFE002898D106B070BD8F
:100EA000E8000020F8B505460C4601F0C1FD684693
:100EB00000F044F806460098F0B944B9B54206D8A7
:100EC00002F09EFA31462846FFF752FF16E03CB189
:100ED0000B480068006808B9012000E000200446C3
:100EE000A91B22460748006801F01AFC02F088FAA4
:100EF00020B901F0F3FB01E002F082FAF8BD000036
:100F0000E4000020E80000200A490968096809B9DE
:100F1000012100E0002121B14FF0FF31064A1160AC
:100F200006E004490968C968C868034A4168116055
:100F300070470000AC000020D800002070B50446C7
:100F400002F01EF9054607480068854204D200F009
:100F50000BF80120206001E00020206001480560BE
:100F6000284670BDEC0000202DE9F8432BE0204816
:100F70000068C06805681E480068C068C468201D15
:100F800001F0CCFA2046616A8847E06901281AD14D
:100F9000A0694619AE4207D966602461211D144834
:100FA000006801F0DFFA0EE0002003462A46014601
:100FB0000090204602F0E6FA07461FB9FFF706F94F
:100FC00000BFFEE700BF0A480068006808B90120BA
:100FD00000E000200028CAD00548D0F8008005486D
:100FE0000068034908600348C0F80080BDE8F88342
:100FF000E0000020E400002007480068401C08B919
:10100000012000E0002018B9FFF7E0F800BFFEE77C
:10101000FFF7DCF800BFFEE7F000002008B500BFD6
:101020006846FFF7BBFD044620460099FFF73AFFEC
:10103000FFF7CAFEF4E710B5044601F0B9FA11E073
:10104000606A08B9012000E0002038B904F12400EA
:1010500002F090F918B101F0D5FB00E005E0A06CBA
:10106000401EA064A06C0028EADC00BF4FF0FF30F7
:10107000A06401F0BFFA01F09BFA11E0206908B901
:10108000012000E0002050B904F1100002F072F9D4
:1010900008B101F0B7FB606C401E606400E002E044
:1010A000606C0028EADC00BF4FF0FF30606401F0A4
:1010B000A1FA10BD2DE9F04104464FF0000801F0FF
:1010C000B7FC2648006820B9FFF77CFD01202349C2
:1010D000086044B1083404F0070020B104F00700B0
:1010E000C0F108000444002C32D047F2F87084426A
:1010F0002ED21B4F3846056801E02F462D686868E0
:10110000A04202D228680028F7D1164885421FD095
:10111000386800F10808286838606868001B1028E3
:1011200010D92E196868001B70606C6071680C48DB
:1011300000E00068026852688A42FAD302683260AE
:10114000066000BF084968680968081A064908600F
:1011500002F056F94046BDE8F08100001001002081
:10116000FC000020040100200C010020064800685B
:1011700030B10549096801F15000096D491C016051
:101180000148006870470000A800002070B50446C0
:1011900026461CB9FFF71AF800BFFEE701F008FA6F
:1011A000356A01F027FA284670BD0000001F4FF095
:1011B00080730360001F0160001F034B036014383D
:1011C0000260203870470000F90F00082DE9F04F49
:1011D0008BB00746002009903EA090E8004CC06804
:1011E000CDE905BECDF810A007900FF2EC0ADAE9C0
:1011F000000ACDE9020A0FF2E00ADAE9000ACDE9B5
:10120000000A38484068C0F381000A900A9820B16B
:10121000012804D0022829D103E0334928E03249CB
:1012200026E03048406800F48038B8F5803F09D1A6
:101230002D4C2C48406800F40039B9F5003F02D12C
:10124000641000E0294C27484068C0F383422548D9
:10125000406800F0006008B142F010020F2A01D28D
:10126000921C00E0521C04FB02F101E01E4900BF89
:1012700000BF1C484068C0F3031504A8465D21FA6E
:1012800006F318484068C0F3022502A8465D23FA19
:1012900006FC14484068C0F3C2251DF8056023FA17
:1012A00006F0089037B1012F06D0022F06D0032F89
:1012B0000AD106E0099108E0099306E0CDF824C0C0
:1012C00003E00898099000E000BF00BF09980BB048
:1012D000BDE8F08F000000000000000001020304E0
:1012E000060708090010024000127A0000093D00BC
:1012F000064A02EB9011096800F01F0301229A4090
:101300001143024B03EB9012116070470010024032
:10131000064A02EB9011096800F01F0301229A406F
:101320009143024B03EB9012116070470010024092
:10133000064A02EB9011096800F01F0301229A404F
:101340001143024B03EB90121160704700100240F2
:1013500030B503460C4600210022022202E0985CD0
:101360000144521CA242FADBC94303480088401CD6
:10137000014D2880C8B230BD1C01002010B50446C4
:101380003848807A38490C543648C07A06285AD2F0
:10139000DFE800F0030E23293140FF2C03D10120A8
:1013A0003049C872487000202E49C88088724BE0CE
:1013B000F52C0ED12B484078012806D12949087018
:1013C000002048700220C87206E000202549C8723B
:1013D00002E000202349C87236E0224884700320CE
:1013E0002049C87230E01F48C47004201D49C872EB
:1013F0000020087128E01B480079401C1949087139
:1014000008460179C078401E814202D10520154965
:10141000C87219E000201349C8720846807A411E3C
:101420001148FFF795FF0F49487108464079A042DF
:1014300002D101200D4908700A48807A09490871D3
:101440000020487000E000BF00BF0649897A481CB0
:10145000C11700EB91618911A0EB8111014A9172D2
:1014600010BD0000C8870020888700201E010020D2
:1014700010B508210148FFF797F810BD000C014096
:1014800010B518A11948FEF7E5FE002017490861BC
:1014900017A116481C30FEF7DDFE01211348C1627A
:1014A00010A13830FEF7D6FE0221104881640DA14C
:1014B0005430FEF7CFFE03210C48416609A170307D
:1014C000FEF7C8FE04210948C0F880100020074933
:1014D00088610021054841630165C166C0F8881034
:1014E00010BD00004E6F746966790000F885002019
:1014F00053797374656D0000F8B504460E461546C1
:10150000052C01D90120F8BDC4EBC401184A02EB37
:10151000810100950B69C4EBC40102EB810001223B
:10152000314601F0E1FFC4EBC401114A02EB810135
:101530008861C4EBC400114601EB8000806908B9E2
:101540000020E0E701F01CFE07466420C4EBC40164
:10155000074A02EB8101009000233A468869012185
:1015600002F010F8012801D00120CCE70120CAE7E1
:10157000F88500207047000010B502210148FFF7F0
:1015800015F810BD0010014010B5044624B1012C1F
:1015900051D0022C7DD19FE00123032218217748EE
:1015A000FFF70BF840F6C411C4EB0410744A02EBC9
:1015B0008000C1834FF4FA71C4EB041002EB800089
:1015C000018440F6C411C4EB041002EB8000418496
:1015D0004FF4FA71C4EB041002EB8000818440F2F6
:1015E000DC50C4EB041102EB810188830421C4EBBD
:1015F000041002EB800001856249C4EB041002EB89
:101600008000C1626049C4EB041002EB80004163BA
:10161000B421C4EB041002EB800041860221C4EB2C
:10162000041002EB80000186FA21C4EB041002EBE7
:1016300080008181A0E00223032218214F48FEF799
:10164000BCFF40F6C411C4EB04104D4A02EB80000D
:10165000C1834FF4FA71C4EB041002EB80000184E3
:1016600040F6C411C4EB041002EB800041844FF437
:10167000FA71C4EB041002EB8000818440F2DC506C
:10168000C4EB041102EB810188830421C4EB041034
:1016900000E070E002EB800001853A49C4EB0410E1
:1016A00002EB8000C162B421C4EB041002EB8000A5
:1016B00041863549C4EB041002EB800041630321ED
:1016C000C4EB041002EB80000186FA21C4EB041085
:1016D00002EB800081814FE020230322182127485C
:1016E000FEF76BFF40F6C411C4EB0410244A02EB72
:1016F0008000C1834FF4FA71C4EB041002EB800048
:10170000018440F6C411C4EB041002EB8000418454
:101710004FF4FA71C4EB041002EB8000818440F2B4
:10172000DC50C4EB041102EB810188830421C4EB7B
:10173000041002EB800001851249C4EB041002EB97
:101740008000C162B421C4EB041002EB800041862A
:101750000D49C4EB041002EB800041630121C4EB8E
:10176000041002EB80000186FA21C4EB041002EBA6
:101770008000818100E000BF00BF10BD000C01406F
:101780008486002000040040EC51B83E7047000001
:101790007FB504460020ADF80A000220ADF806002F
:1017A00001200090C4EB04121E4B03EB8202118E49
:1017B000C4EB041203EB8202D06A6A4600F0BCF864
:1017C000C4EB0412174B03EB8202118EC4EB04121C
:1017D00003EB8202D06A702200F0A4F9C4EB04117A
:1017E000104A02EB8101C86A00F0A0F8C4EB0411B2
:1017F0000C4A02EB8101C86A00F042FAC4EB041300
:10180000084D05EB83039A8BC4EB041305EB8303AC
:10181000198EC4EB041305EB8303D86A00F0AFF90B
:101820007FBD0000848600201FB5044640F2017091
:10183000FFF75EFD094800F0B5F90020ADF80C0097
:10184000ADF804006B20ADF8000044F61F60029074
:101850006946024800F01AFA1FBD0000000400406B
:10186000002000212C4A126842F480322A4B1A6070
:1018700000BF401C284A126802F4003119B94FF623
:10188000FF729042F5D1244A126802F400320AB97C
:1018900000BFFEE7204A52681F4B5A601A46526842
:1018A0005A601A46526842F480625A601A46526878
:1018B00022F440325A601A46526842F440325A606A
:1018C0001A465268154B1A40134B5A601A46526812
:1018D000134B1A43104B5A601A46126842F080723A
:1018E0001A6000BF0C4A126802F00072002AF9D098
:1018F000094A526822F00302074B5A601A4652689E
:1019000042F002025A6000BF034A526802F0080225
:10191000002AF9D07047000000100240FFFFC3F713
:101920000000280810B5FFF79BFF10BD016841F0CB
:10193000800101607047000010B531B101293FD02E
:1019400002297DD003297CD1BFE0036A23F0010383
:101950000362036A146823430362036A23F00203E9
:101960000362036AD488234303626C4B984202D01B
:101970006B4B98421FD1036A23F004030362036A8E
:10198000948823430362036A23F008030362036A13
:10199000148923430362436823F4807343604368DC
:1019A000548923434360436823F4007343604368CE
:1019B000948923434360836923F003038361ABE08D
:1019C000036A23F010030362036A146843EA0413F2
:1019D0000362036A23F020030362036AD48843EAA4
:1019E000041303624D4B984202D04D4B984223D1D1
:1019F000036A23F040030362036A948843EA0413F2
:101A00000362036A23F080030362036A148943EAD2
:101A100004130362436823F480634360436854897A
:101A200043EA84034360436823F4006343604368EC
:101A3000948943EA84034360836923F4407301E09B
:101A400002E068E0836167E0036A23F48073036265
:101A5000036A146843EA04230362036A23F40073ED
:101A60000362036AD48843EA042303622B4B98423F
:101A700002D02B4B984223D1036A23F48063036284
:101A8000036A948843EA04230362036A23F400632D
:101A90000362036A148943EA04230362436823F45C
:101AA000805343604368548943EA041343604368A6
:101AB00023F4005343604368948943EA041343606A
:101AC000C36923F00303C36126E0036A23F4805350
:101AD0000362036A146843EA04330362036A23F46B
:101AE00000530362036AD48843EA043303620B4B56
:101AF000984202D00A4B984208D1436823F48043AD
:101B000043604368548943EA84134360C36923F400
:101B10004073C36100E000BF00BF10BD002C014056
:101B20000034014031B101290CD0022913D003291E
:101B300022D118E0836923F0700383618369134322
:101B400083611AE0836923F4E0438361836943EA94
:101B50000223836111E0C36923F07003C361C36989
:101B60001343C36109E0C36923F4E043C361C3695C
:101B700043EA0223C36100E000BF00BF704731B1F8
:101B8000012906D0022906D0032908D105E04263C5
:101B900006E0826304E0C26302E0026400E000BF8A
:101BA00000BF704710B504463349601A8C4244D0D8
:101BB0000CDCB4F1804F1CD03048204410B3B0F599
:101BC000806F28D0B0F5006F52D12DE0B0F5806F56
:101BD0003CD0B0F58E3F03D0B0F5923F48D13EE007
:101BE00040F20B30FFF7A4FB40F20B30FFF790FB05
:101BF0003FE04FF48060FFF79BFB4FF48060FFF7FE
:101C000087FB36E040F20140FFF792FB40F20140D3
:101C1000FFF77EFB2DE040F20240FFF789FB40F228
:101C20000240FFF775FB24E040F20340FFF780FB22
:101C300040F20340FFF76CFB1BE040F20440FFF76B
:101C400077FB40F20440FFF763FB12E040F20540EF
:101C5000FFF76EFB40F20540FFF75AFB09E040F248
:101C60000D30FFF765FB40F20D30FFF751FB00E050
:101C700000BF00BF10BD00000010004000FCFFBF0F
:101C8000016841F001010160704700000A8882622A
:101C9000264A904220D0B0F1804F1DD0244A904275
:101CA0001AD0244A904217D0234A904214D0234A93
:101CB000904211D0224A90420ED0224A90420BD03C
:101CC000214A904208D0214A904205D0204A9042B1
:101CD00002D0204A90420BD1026822F070020260CA
:101CE00002684B881A43026002688B881A430260BC
:101CF0008A68C262184A90420AD0184A904207D0B5
:101D0000026822F44072026002688B891A43026002
:101D1000064A904202D0094A904201D18A7B02636E
:101D2000426942F00102426170470000002C01400C
:101D30000004004000080040000C00400034014056
:101D4000004C014000500140005401400018004088
:101D5000001C004000200040001000400014004023
:101D600002698A43026170470246D06800EA0103B3
:101D70001069084010B10BB1012070470020FCE74A
:101D8000704700002DE9F04704460D460027B8468D
:101D9000B94600261D49601A8C421CD006DC1C483E
:101DA000204470B1B0F5806F1FD10FE0B0F5806FA7
:101DB00016D0B0F56C4F18D10320FFF707FA07468D
:101DC00014E00220FFF702FA07460FE00220FFF7B7
:101DD000FDF907460AE00220FFF7F8F9074605E09B
:101DE0000220FFF7F3F9074600E000BF00BF07EB52
:101DF0005500B0FBF5F64FF6F07006EA000806F065
:101E00000F0948EA0900A060BDE8F087004C0040D7
:101E100000BCFFBF01464868C0F308007047C1F32B
:101E2000080242607047000010B504462049601A5D
:101E30008C4228D006DC1F48204490B1B0F5806F5A
:101E400033D117E0B0F5806F26D0B0F56C4F2CD1B0
:101E500040F20E30FFF76CFA40F20E30FFF758FAFE
:101E600024E040F21140FFF763FA40F21140FFF71F
:101E70004FFA1BE040F21240FFF75AFA40F21240CC
:101E8000FFF746FA12E040F21340FFF751FA40F232
:101E90001340FFF73DFA09E040F21440FFF748FA1B
:101EA00040F21440FFF734FA00E000BF00BF10BD5D
:101EB000004C004000BCFFBF0A460021416921F0F0
:101EC000400111434161704710B50446052C0DD205
:101ED000DFE804F00305040A0B0000BF07E002215D
:101EE0000448FEF701FB02E001E000E000BF00BF94
:101EF00010BD0000000002400A460021416921F0A7
:101F0000800111434161704710B50446052C0DD284
:101F1000DFE804F00305040A0B0000BF07E002211C
:101F20000448FEF7E1FA02E001E000E000BF00BF74
:101F300010BD000000000240C16841F40051C160C2
:101F4000704710B5024602EB9110006801F01F04C3
:101F50000123A340184008B1012010BD0020FCE778
:101F600010B5C1F38912825801F01F040123A34068
:101F70001A43C1F38913C25010BD10B500EB915242
:101F80001268C1F304440123A3409A4300EB915328
:101F90001A6010BDC26822F4C062C260C2680A43FF
:101FA000C26070470A460021C16821F00401114354
:101FB000C1607047026922F44052026102690A431B
:101FC000026170470A460021C16821F008011143EF
:101FD000C1607047C26822F48052C260C2680A437E
:101FE000C260704770B5044604EBC40101EB841174
:101FF000604A02EBC1018888FFF77AF904EBC4015B
:1020000001EB84115B4A52F83100FFF70DFF04EB3E
:10201000C40202EB8412574B03EBC202916804EB3B
:10202000C40202EB841253F83200FFF7ABFE04EB5C
:10203000C40202EB84124F4B03EBC202D16804EBE3
:10204000C40202EB841253F83200FFF7A3FF04EB43
:10205000C40202EB8412474B03EBC202116904EB8A
:10206000C40202EB841253F83200FFF7B3FF04EB13
:10207000C40202EB84123F4B03EBC202516904EB32
:10208000C40202EB841253F83200FFF793FF04EB13
:10209000C40000EB8410374901EBC000407E68B1FA
:1020A0002046FFF731FF04EBC40101EB8411314AF4
:1020B00052F831008021FFF71FFF09E004EBC40153
:1020C00001EB84112B4A52F831000821FFF77AFF07
:1020D00004EBC40000EB8410264901EBC000007E35
:1020E00068B12046FFF7F0FE04EBC40101EB841158
:1020F000204A52F831004021FFF7DEFE09E004EBF0
:10210000C40101EB84111B4A52F831000421FFF78E
:1021100049FF04EBC40101EB8411164A52F8310067
:10212000FFF70AFF04EBC40101EB8411114A52F8D6
:10213000310040F20531FFF713FF04EBC40303EB5A
:1021400084130C4D05EBC30393F8382004EBC40350
:1021500003EB841305EBC30393F8341004EBC403BF
:1021600003EB841305EBC30393F83C00FEF7A4FBD9
:1021700070BD0000907A002010B504464FF4C06096
:10218000FFF7B6F8052C7CD2DFE804F0032E649C40
:10219000D20040F20260FFF7ABF84FF40073032265
:1021A00018218348FEF709FA4FF4806303220421C3
:1021B0007F48FEF702FA7F487F49086040F20E60D0
:1021C00088804FF4E13088600020C8604861086171
:1021D00008764876202081F83E00252081F83C00D2
:1021E000002048638863DDE040F20260FFF780F87A
:1021F0004FF48063032218216D48FEF7DEF94FF497
:102200000063032204216A48FEF7D7F96B486A4944
:10221000C1F8480240F211716748A0F84C124FF41F
:10222000E131C0F850120021C0F85412C0F85C121D
:10223000C0F8581280F8601280F86112202180F8EE
:102240008612262180F884120021C0F87C12C0F882
:102250008012A7E040F20360FFF74AF84FF4806372
:10226000032218215648FEF7A8F94FF40063032211
:1022700004215348FEF7A1F952484F49C1F8900490
:1022800000E08EE040F212714B48A0F894144FF435
:10229000E131C0F898140021C0F89C14C0F8A414CF
:1022A000C0F8A01480F8A81480F8A914202180F8A0
:1022B000CE14272180F8CC140021C0F8C414C0F833
:1022C000C8146FE040F20460FFF712F84FF4806327
:1022D000032218213C48FEF770F94FF400630322F3
:1022E00004213948FEF769F938483349C1F8D8065E
:1022F00040F213713048A0F8DC164FF4E131C0F819
:10230000E0160021C0F8E416C0F8EC16C0F8E81694
:1023100080F8F01680F8F116202180F81617342185
:1023200080F814170021C0F80C17C0F8101739E016
:1023300040F20460FEF7DCFF40F20560FEF7D8FFD4
:102340004FF48053032218211F48FEF736F9042367
:10235000032219461E48FEF730F91E481649C1F8F7
:10236000200940F214711448A0F824194FF4E13107
:10237000C0F828190021C0F82C19C0F83419C0F889
:10238000301980F8381980F83919202180F85E1941
:10239000352180F85C190021C0F85419C0F858198B
:1023A00000E000BF00BF2046FFF71CFE10BD00008C
:1023B0000008014000380140907A002000440040AD
:1023C000000C01400048004000100140004C00405B
:1023D00000140140005000402DE9F84304460D462A
:1023E00016461F4604EBC40000EB84104A4901EB7B
:1023F000C00090F83E0020287DD105B116B901201B
:10240000BDE8F88300BF04EBC40000EB8410424930
:1024100001EBC00090F83D00012801D10220EFE758
:10242000012004EBC40101EB84113B4A02EBC10122
:1024300081F83D0000BF04EBC40000EB841011469E
:1024400001EBC000066204EBC40000EB841001EB5A
:10245000C000C661FDF71EFF8046212004EBC401C9
:1024600001EB84112C4A02EBC10181F83E002FE000
:1024700004EBC40000EB8410274901EBC000006AA4
:10248000401E04EBC40101EB8411234A02EBC1019D
:10249000086243460022072120460097FDF78CFF83
:1024A00008B10320ACE715F8011B04EBC40202EBF2
:1024B0008412194B53F83200FFF7B1FC4346002257
:1024C000072120460097FDF777FF08B1032097E723
:1024D00004EBC40000EB84100F4901EBC000006A5C
:1024E0000028C5D100BF04EBC40101EB84110A4AE6
:1024F00002EBC10100E00DE081F83D0000BF2020AB
:1025000004EBC40101EB841102EBC10181F83E0030
:10251000002075E7022073E7907A002001460A69DF
:10252000D1E901309860D1E90103586050688842D0
:1025300001D188685060002008611068401E10605A
:102540001068704700F1080141604FF0FF31816071
:1025500000F10801C16001610021016070470021A4
:102560000161704710B502460B685C1C0CB910691C
:1025700007E002F1080000E04068446824689C42DB
:10258000FAD944684C604C68A160886041600A6177
:102590001468641C146010BD42684A6093688B60C4
:1025A000936859609160086103685B1C0360704721
:1025B00010B5FDF70BFE0D480068401C0B49086084
:1025C000BFF34F8FBFF36F8F0846006801280BD110
:1025D00007480068C0B208B9012000E0002018B91F
:1025E000FDF7F4FD00BFFEE710BD0000F000002085
:1025F00004ED00E010B50948006818B9FDF7E6FDE4
:1026000000BFFEE705480068401E04490860084610
:10261000006810B90020FDF7E0FD10BDF0000020BB
:1026200070B506463546B6B1083D2C4600F000FAB6
:102630006168094800E00068026852688A42FAD37B
:10264000026822600460054960680968084403491B
:10265000086000F0D5FE70BDFC0000200C010020D9
:10266000064800684FF47A71B0FBF1F0401E4FF05D
:10267000E021486107200861704700002400002025
:1026800070B5FDF7ADFD0546102D0FD305F1E02027
:1026900090F8F0430E480078844201DB012000E00E
:1026A000002018B9FDF792FD00BFFEE70948006859
:1026B00000F4E06008490968884201D8012000E080
:1026C000002018B9FDF782FD00BFFEE770BD0000D5
:1026D000F40000200CED00E0F80000204FF08050E6
:1026E00003490860BFF34F8FBFF36F8F704700003F
:1026F00004ED00E0024600200BE0084B53F83030B8
:1027000033B9064B43F8301003EBC0035A6002E0C4
:10271000401C0828F1D300BF7047000024010020AE
:102720002DE9F04105460E4617462C46FFF740FFBF
:10273000606C401C08B900206064A06C401C08B9A3
:102740000020A064FFF756FFA06B28B93A46314637
:1027500004F1240000F094F82046FEF76CFCBDE87C
:10276000F081000070B50446002634B315480068B7
:1027700008B9012000E0002018B9FDF727FD00BFCF
:10278000FEE700F055F91048006805190F48006889
:10279000001DFFF7C3FE50B90C48006890F82C10DC
:1027A000012088400A490968814309480160284698
:1027B000FEF7DEF800F024FE06460EB9FFF78EFFA6
:1027C00070BD0000DC000020BC000020A80000203C
:1027D000C00000200AE04FF4FA73102204490020E0
:1027E000FFF7FAFD4FF47A70FFF7BCFFF3E7000044
:1027F0001000002005E00220FDF7BAFE0A20FFF7D6
:10280000B1FFF8E70120014908607047CC000020C3
:1028100070B505460C461DB9FDF7D8FC00BFFEE7B4
:102820001348016818312846FFF79CFE10480068DD
:10283000001DFFF773FE50B90D48006890F82C108A
:10284000012088400B49096881430A480160601CE7
:1028500030B907480168091D0748FFF79DFE05E0EC
:102860000648006806193046FEF782F870BD000081
:10287000A8000020C000002054020020BC0000205E
:102880002DE9F04104460D4616461CB9FDF79EFCA5
:1028900000BFFEE71348016818312046FFF77CFEB1
:1028A00010480068001DFFF739FE50B90D48006858
:1028B00090F82C10012088400B49096881430A4890
:1028C0000160012E06D107480168091D0748FFF77E
:1028D00063FE05E00648006847193846FEF748F8E9
:1028E000BDE8F081A8000020C000002054020020B4
:1028F000BC00002070B505462C46002D4BD0264963
:10290000E06A0968C96A884245D2A06900F00040BF
:1029100028B921480068C06AC0F10800A061E16AD6
:1029200001EB81011D4A02EB81016069884201D1FE
:10293000012000E0002050B3201DFFF7EFFD78B923
:10294000E06A00EB8000154951F8200040B994F886
:102950002C10012088401249096881431048016009
:102960000D480068C06AE06294F82C10012088408D
:102970000B49096808430A490860E16A01EB8101D3
:10298000064A02EB8100211DFFF706FE03E0024824
:102990000068C06AE06270BDA800002064010020E9
:1029A000C000002010B504461CB9FDF70FFC00BFA5
:1029B000FEE703480068206002480068606010BDC0
:1029C000D0000020BC0000201FB500200090019026
:1029D00002900346822210A10390114800F024FBCC
:1029E0000446012C02D100F0A7FD0446012C0DD1B4
:1029F000FDF7ECFBA01E0B49086001200A490860A6
:102A000000200A49086000F06FF804E01CB9FDF7E7
:102A1000DDFB00BFFEE71FBD49444C450000000040
:102A2000FD0B0008D8000020C4000020BC000020DE
:102A300002480068401C014908607047DC00002023
:102A400010B51A48006818B10120194908602BE038
:102A500000201749086017480068B0FA80F0C0F1FC
:102A60001F0404EB8400144951F8200008B1012030
:102A700000E0002018B9FDF7A9FB00BFFEE704EB5A
:102A800084010D4A02EB810041684968416000F110
:102A9000080142688A4202D1416849684160416840
:102AA000C968064A116000BF10BD0000DC000020AC
:102AB000CC000020C000002064010020A8000020FD
:102AC00070B505461DB9FDF781FB00BFFEE728463E
:102AD000FEF75CFB0446012C04D1FDF7E1FBFDF79A
:102AE00051FE00E000BF70BD1CB5224801460978C8
:102AF0000191FF21024611700146097800919DF86D
:102B0000001001F020011C4A117007211B4A1160BE
:102B100009E01A490968491E184A11609DF8001019
:102B20004906090E00919DF8001001F080018029EE
:102B3000EFD0124909680902104A1160114609884C
:102B400001F4E06111600B4A019911700C480068B2
:102B500040F470000A4908600846006840F0704080
:102B60000860FFF77DFD002006490860FDF7FCFACC
:102B700000201CBD00E400E0F4000020F80000206C
:102B800020ED00E0F00000202DE9F04706460D465C
:102B900090464FF000090EB1012000E0002018B966
:102BA000FDF714FB00BFFEE70DB9002702E006FBAE
:102BB00005F0471C07F15400FEF77CFA044674B197
:102BC0000DB9246002E004F154002060E66325643E
:102BD0000121204600F0BAF884F85080A146B9F1EE
:102BE000000F03D1FDF7F2FA00BFFEE74846BDE84B
:102BF000F0872DE9FF4383B005460E461F464FF090
:102C000000092C461CB9FDF7E1FA00BFFEE70EB93A
:102C1000206C08B9012000E0002018B9FDF7D6FAB1
:102C200000BFFEE700F09CFA08B9059808B901203A
:102C300000E0002018B9FDF7C9FA00BFFEE700BFA9
:102C4000FFF7B6FCA06B90B3D4F80C803146204659
:102C5000FDF746FFB7B9A06B401EA063206810B90E
:102C6000FEF784FA6060206908B9012000E00020C6
:102C7000B8B904F1100000F07DFB012811D1FFF775
:102C80002DFD0EE0C4F80C80606A08B9012000E058
:102C9000002030B904F1240000F06CFB08B1FFF70C
:102CA0001DFDFFF7A7FC012007B0BDE8F083FFE79B
:102CB000059818B9FFF79EFC0020F5E7B9F1000F61
:102CC00004D101A8FFF76EFE4FF00109FFF792FC57
:102CD000FFF7AEFEFFF76CFC606C401C08B90020EB
:102CE0006064A06C401C08B90020A064FFF782FC5F
:102CF00005A901A800F05EF908BB2046FEF71CF804
:102D0000B8B1206830B9FFF753FC6068FFF7F2FDF7
:102D1000FFF770FC04F124000599FFF779FD2046C8
:102D2000FEF789F900F06CFB002889D1FFF7D6FC8B
:102D300086E72046FEF77FF900F062FB80E7204639
:102D4000FEF779F900F05CFB0020ADE770B50546B1
:102D50000E462C461CB9FDF739FA00BFFEE7FFF717
:102D600027FCD4E90F12206801FB020060600020FC
:102D7000A0632068A060E06B401E226C216800FB0D
:102D80000210E0604FF0FF306064A06476B9206903
:102D900008B9012000E0002080B904F1100000F023
:102DA000E9FA01280AD1FFF799FC07E004F11000C5
:102DB000FFF7C8FB04F12400FFF7C4FBFFF71AFC80
:102DC000012070BD2DE9FF4383B0064688461D46AD
:102DD0004FF0000934461CB9FDF7F8F900BFFEE7D3
:102DE000B8F1000F01D1206C08B9012000E00020EB
:102DF00018B9FDF7EBF900BFFEE7022D02D1E06B39
:102E0000012801D1012000E0002018B9FDF7DEF90A
:102E100000BFFEE700F0A4F908B9059808B9012041
:102E200000E0002018B9FDF7D1F900BFFEE700BFB0
:102E3000FFF7BEFBA06BE16B884201D3022D1DD1D1
:102E40002A4641462046FDF760FE0746606A08B9FB
:102E5000012000E0002040B904F1240000F08AFACB
:102E6000012805D1FFF73AFC02E00FB1FFF736FC6D
:102E7000FFF7C0FB012007B0BDE8F083059818B943
:102E8000FFF7B8FB0020F6E7B9F1000F04D101A865
:102E9000FFF788FD4FF00109FFF7ACFBFFF7C8FD16
:102EA000FFF786FB606C401C08B900206064A06CD2
:102EB000401C08B90020A064FFF79CFB05A901A8ED
:102EC00000F078F8C0B92046FDF743FF70B104F177
:102ED00010000599FFF79CFC2046FEF7ACF800F0C7
:102EE0008FFA0028A4D1FFF7F9FBA1E72046FEF7EF
:102EF000A2F800F085FA9BE72046FEF79CF800F068
:102F00007FFA0020B7E72DE9F047064689461746C5
:102F10001D4634461CB9FDF759F900BFFEE7B9F16B
:102F2000000F01D1206C08B9012000E0002018B981
:102F3000FDF74CF900BFFEE7022D02D1E06B01283E
:102F400001D1012000E0002018B9FDF73FF900BFD2
:102F5000FEE7FFF795FBFDF739F98246A06BE16BC1
:102F6000884201D3022D1CD12A4649462046FDF74E
:102F7000CCFDA06C401C70B9606A08B9012000E06B
:102F8000002058B904F1240000F0F4F930B12FB159
:102F90000120386002E0A06C401CA0644FF00108E2
:102FA00001E04FF000085046FDF717F94046BDE834
:102FB000F08700002DE9F04104460D461CB9FDF7ED
:102FC00005F900BFFEE71DB9FDF700F900BFFEE7F8
:102FD000FFF7EEFA124807682868401C08B9002677
:102FE00019E0104920680968884204D06068B84236
:102FF00001D801260FE06068381A2968884209D292
:1030000028686168791A401A28602046FFF7CAFCD0
:10301000002600E00126FFF7EDFA3046BDE8F0811A
:10302000BC000020D00000202DE9FF4F81B0804679
:1030300016469A46DDE90E5BB8F1000F03D1FDF7A5
:10304000C5F800BFFEE7082D01D2012000E00020F6
:1030500018B9FDF7BBF800BFFEE730461099FDF741
:10306000B1FC0446002C5DD0701E216B01EB800981
:1030700029F0070909F0070008B9012000E0002045
:1030800018B9FDF7A3F800BFFEE700962A462046D0
:10309000119B0299FDF7BEFD524641464846FEF798
:1030A00085F82060BBF1000F01D0CBF80040FFF79E
:1030B0007FFA25480068401C2349086023480068BF
:1030C00040B9224804600846006801280CD1FDF789
:1030D000D3FD09E01E48006830B91C480068C06A8A
:1030E000A84201D8194804601A480068401C1949D0
:1030F000086008460068606494F82C10012088403D
:1031000015490968084314490860E16A01EB810127
:10311000124A02EB8100211DFFF73EFA0127FFF75B
:1031200069FA01E04FF0FF37012F09D10848006824
:1031300030B106480068C06AA84201D2FFF7CEFA53
:10314000384605B0BDE8F08FB8000020A800002088
:10315000C4000020D4000020C00000206401002032
:103160000549096809B9012005E00449096809B958
:10317000022000E000207047C4000020DC00002096
:103180000149086870470000BC0000202DE9F041AB
:103190004FF0000841480068002872D1404800689C
:1031A000401C3F49086008460668DEB93D48006893
:1031B000006808B9012000E0002018B9FDF706F802
:1031C00000BFFEE7374807683748006835490860A0
:1031D0003548076035480068401C34490860FDF7F1
:1031E00093FE00BF3248006886423CD300BF2D48A2
:1031F0000068006808B9012000E0002020B14FF00D
:10320000FF302B4908602DE026480068C068C4687C
:103210006568AE4202D22648056023E0201DFFF714
:103220007DF9A06A18B104F11800FFF777F994F856
:103230002C10012088401F49096808431D49086077
:10324000E16A01EB81011C4A02EB8100211DFFF7BD
:10325000A3F91A49E06A0968C96A8842C7D34FF0DE
:103260000108C4E700BF15480068C06A00EB800091
:10327000114951F82000012808D94FF0010805E054
:10328000FFE70F480068401C0D4908600D480068C2
:1032900008B14FF001084046BDE8F081DC00002095
:1032A000BC000020AC000020B0000020D0000020B6
:1032B000D8000020C000002064010020A8000020E9
:1032C000C8000020CC00002070B505462C46002622
:1032D000002D47D024480068844201D1012000E03D
:1032E000002018B9FCF772FF00BFFEE7206D18B987
:1032F000FCF76CFF00BFFEE7206D401E2065E16C0F
:10330000E06A88422ED0206D60BB201DFFF706F9D1
:1033100078B9E06A00EB8000144951F8200040B908
:1033200094F82C1001208840114909688143104805
:103330000160E06CE062E06AC0F10800A06194F80E
:103340002C10012088400A49096808430849086090
:10335000E16A01EB8101054A02EB8100211DFFF7C3
:103360001BF90126304670BDA80000206401002032
:10337000C000002070B50646F068C4681CB9FCF7B0
:1033800025FF00BFFEE704F11800FFF7C7F8164855
:103390000068A8B9201DFFF7C1F894F82C1001208F
:1033A000884012490968084310490860E16A01EB46
:1033B00081010F4A02EB8100211DFFF7EDF804E0C7
:1033C00004F118010B48FFF7E7F80B49E06A0968B8
:1033D000C96A884204D9012501200849086000E033
:1033E0000025284670BD0000DC000020C000002041
:1033F000640100202C020020A8000020CC00002046
:1034000070B500253048006818B9FCF7DFFE00BF32
:10341000FEE7FFF7CDF82C480068401E2A490860F7
:103420000846006800284BD128480068002847D08B
:1034300024E02748C068C46804F11800FFF76EF85C
:10344000201DFFF76BF894F82C10012088402149CB
:10345000096808431F490860E16A01EB81011E4ABF
:1034600002EB8100211DFFF797F81C49E06A09680B
:10347000C96A884202D301201949086014480068CB
:1034800008B9012000E000200028D2D015480068CB
:1034900078B10AE0FFF77AFE10B101201049086008
:1034A00010480068401E0F4908600E480068002858
:1034B000F0D10B480068012802D10125FFF70EF971
:1034C000FFF798F8284670BDDC000020B800002007
:1034D0002C020020C000002064010020A800002071
:1034E000CC000020C80000202DE9F04706460D461C
:1034F00017469846DDF820900DB9002410E02C20E6
:10350000FDF7D8FD04465CB1FDF77EFA2660A561A3
:10351000E761C4F82080C4F82490201DFFF71FF84D
:103520000DB1012000E0002018B9FCF74FFE00BFEC
:10353000FEE72046BDE8F0871FB50024FDF764FADA
:103540000C48006868B100200223CDE900300290E9
:1035500003464FF4827208A103900948FFF764FD07
:1035600004461CB9FCF732FE00BFFEE7204604B05B
:1035700010BD0000E8000020546D722053766300F7
:103580001D1000082DE9FE4304460D4616461F4651
:10359000DDF828804FF000091CB9FCF717FE00BFCA
:1035A000FEE71448006810B3009501960294062DBA
:1035B00015DAFFF7D5FD022808D1002342466946F7
:1035C0000C480068FFF7FEFB814610E000231A4616
:1035D000694608480068FFF7F5FB814607E00023CD
:1035E0003A46694603480068FFF78DFC8146484625
:1035F000BDE8FE83E80000205461736B203220692F
:10360000732072756E6E696E67090A005461736B80
:1036100020312069732072756E6E696E670D0A0025
:10362000403600080000002024010000C804000803
:103630006437000824010020B4A60000D804000864
:103640000C360008F83500080000000000000000FB
:10365000AABBCCDD0405060708090A0B0C0D0E0FEA
:103660000000000000F36F06001001400010014050
:103670000018014000180140010000000400000093
:1036800001000000020000000E0611070002000009
:1036900004000000000400000800000000080140D1
:1036A0000008014002060206040604060606060695
:1036B0000008014000100140000C01400100000022
:1036C000002000000040000002060406030600007F
:1036D0000100000000200000004000000002010086
:1036E0000D0E062828000000000000000000000069
:1036F00000000000000000000000000000000000CA
:1037000000000000000000000000000000000000B9
:1037100000000000000000000000000000000000A9
:103720000000000000000000000000000000000099
:10373000AAAAAAAA000000000000000000000000E1
:10374000000000000000000000000000F87700000A
:103750000000000000000000000000000000000069
:043760000000000065
:0400000508000131BD
:00000001FF
